{
  "_format": "hh-sol-artifact-1",
  "contractName": "R3v3alfunds",
  "sourceName": "contracts/R3v3alManager.sol",
  "abi": [
    {
      "inputs": [
        {
          "internalType": "uint32",
          "name": "_lockPeriod",
          "type": "uint32"
        },
        {
          "internalType": "address",
          "name": "_communityPool",
          "type": "address"
        },
        {
          "internalType": "uint64",
          "name": "sStake",
          "type": "uint64"
        },
        {
          "internalType": "uint64",
          "name": "mStake",
          "type": "uint64"
        },
        {
          "internalType": "uint64",
          "name": "lStake",
          "type": "uint64"
        }
      ],
      "stateMutability": "nonpayable",
      "type": "constructor"
    },
    {
      "anonymous": false,
      "inputs": [
        {
          "indexed": true,
          "internalType": "address",
          "name": "player",
          "type": "address"
        },
        {
          "indexed": false,
          "internalType": "uint256",
          "name": "amount",
          "type": "uint256"
        },
        {
          "components": [
            {
              "internalType": "uint32",
              "name": "x",
              "type": "uint32"
            },
            {
              "internalType": "uint32",
              "name": "y",
              "type": "uint32"
            }
          ],
          "indexed": false,
          "internalType": "struct R3v3alfunds.Point",
          "name": "coordinates",
          "type": "tuple"
        }
      ],
      "name": "RewardDistributed",
      "type": "event"
    },
    {
      "anonymous": false,
      "inputs": [
        {
          "indexed": false,
          "internalType": "uint256",
          "name": "amount",
          "type": "uint256"
        },
        {
          "indexed": false,
          "internalType": "address",
          "name": "receiver",
          "type": "address"
        }
      ],
      "name": "Withdrawal",
      "type": "event"
    },
    {
      "inputs": [],
      "name": "builderAdmin",
      "outputs": [
        {
          "internalType": "address payable",
          "name": "",
          "type": "address"
        }
      ],
      "stateMutability": "view",
      "type": "function"
    },
    {
      "inputs": [],
      "name": "communityPool",
      "outputs": [
        {
          "internalType": "address",
          "name": "",
          "type": "address"
        }
      ],
      "stateMutability": "view",
      "type": "function"
    },
    {
      "inputs": [
        {
          "internalType": "bytes32",
          "name": "mapId",
          "type": "bytes32"
        },
        {
          "internalType": "bytes32",
          "name": "datasetId",
          "type": "bytes32"
        },
        {
          "internalType": "uint32",
          "name": "gameDuration",
          "type": "uint32"
        }
      ],
      "name": "createAndFundMap",
      "outputs": [],
      "stateMutability": "payable",
      "type": "function"
    },
    {
      "inputs": [
        {
          "internalType": "address",
          "name": "",
          "type": "address"
        },
        {
          "internalType": "uint256",
          "name": "",
          "type": "uint256"
        }
      ],
      "name": "datasetIdByMapCreator",
      "outputs": [
        {
          "internalType": "bytes32",
          "name": "",
          "type": "bytes32"
        }
      ],
      "stateMutability": "view",
      "type": "function"
    },
    {
      "inputs": [
        {
          "internalType": "bytes32",
          "name": "datasetId",
          "type": "bytes32"
        },
        {
          "internalType": "address",
          "name": "player",
          "type": "address"
        },
        {
          "components": [
            {
              "internalType": "uint32",
              "name": "x",
              "type": "uint32"
            },
            {
              "internalType": "uint32",
              "name": "y",
              "type": "uint32"
            }
          ],
          "internalType": "struct R3v3alfunds.Point",
          "name": "winningCoordinates",
          "type": "tuple"
        },
        {
          "internalType": "uint256",
          "name": "rewardedAmount",
          "type": "uint256"
        }
      ],
      "name": "distributeReward",
      "outputs": [],
      "stateMutability": "nonpayable",
      "type": "function"
    },
    {
      "inputs": [
        {
          "internalType": "bytes32",
          "name": "datasetId",
          "type": "bytes32"
        }
      ],
      "name": "getClaimedCoordinates",
      "outputs": [
        {
          "components": [
            {
              "internalType": "uint32",
              "name": "x",
              "type": "uint32"
            },
            {
              "internalType": "uint32",
              "name": "y",
              "type": "uint32"
            }
          ],
          "internalType": "struct R3v3alfunds.Point[]",
          "name": "",
          "type": "tuple[]"
        }
      ],
      "stateMutability": "view",
      "type": "function"
    },
    {
      "inputs": [
        {
          "internalType": "address",
          "name": "creator",
          "type": "address"
        }
      ],
      "name": "getDatasetsByCreator",
      "outputs": [
        {
          "internalType": "bytes32[]",
          "name": "",
          "type": "bytes32[]"
        }
      ],
      "stateMutability": "view",
      "type": "function"
    },
    {
      "inputs": [
        {
          "internalType": "bytes32",
          "name": "mapId",
          "type": "bytes32"
        }
      ],
      "name": "getMapCreator",
      "outputs": [
        {
          "internalType": "address",
          "name": "",
          "type": "address"
        }
      ],
      "stateMutability": "view",
      "type": "function"
    },
    {
      "inputs": [
        {
          "internalType": "bytes32",
          "name": "mapId",
          "type": "bytes32"
        }
      ],
      "name": "getMapInfo",
      "outputs": [
        {
          "components": [
            {
              "internalType": "uint256",
              "name": "lockedFund",
              "type": "uint256"
            },
            {
              "internalType": "uint256",
              "name": "unlockTime",
              "type": "uint256"
            },
            {
              "internalType": "enum R3v3alfunds.MapSize",
              "name": "mapSize",
              "type": "uint8"
            },
            {
              "internalType": "address",
              "name": "mapCreator",
              "type": "address"
            },
            {
              "internalType": "uint256",
              "name": "totalReward",
              "type": "uint256"
            },
            {
              "internalType": "uint64",
              "name": "totalWinnerCoordinates",
              "type": "uint64"
            },
            {
              "internalType": "uint32",
              "name": "totalSubMaps",
              "type": "uint32"
            }
          ],
          "internalType": "struct R3v3alfunds.MapInfo",
          "name": "",
          "type": "tuple"
        }
      ],
      "stateMutability": "view",
      "type": "function"
    },
    {
      "inputs": [
        {
          "internalType": "bytes32",
          "name": "mapId",
          "type": "bytes32"
        }
      ],
      "name": "getMapTotalReward",
      "outputs": [
        {
          "internalType": "uint256",
          "name": "",
          "type": "uint256"
        }
      ],
      "stateMutability": "view",
      "type": "function"
    },
    {
      "inputs": [
        {
          "internalType": "bytes32",
          "name": "mapId",
          "type": "bytes32"
        }
      ],
      "name": "getMapTotalSubMaps",
      "outputs": [
        {
          "internalType": "uint32",
          "name": "",
          "type": "uint32"
        }
      ],
      "stateMutability": "view",
      "type": "function"
    },
    {
      "inputs": [
        {
          "internalType": "bytes32",
          "name": "mapId",
          "type": "bytes32"
        }
      ],
      "name": "getMapTotalWinnerCoordinates",
      "outputs": [
        {
          "internalType": "uint64",
          "name": "",
          "type": "uint64"
        }
      ],
      "stateMutability": "view",
      "type": "function"
    },
    {
      "inputs": [
        {
          "internalType": "bytes32",
          "name": "mapId",
          "type": "bytes32"
        }
      ],
      "name": "getMapUnlockTime",
      "outputs": [
        {
          "internalType": "uint256",
          "name": "",
          "type": "uint256"
        }
      ],
      "stateMutability": "view",
      "type": "function"
    },
    {
      "inputs": [
        {
          "internalType": "address",
          "name": "creator",
          "type": "address"
        }
      ],
      "name": "getMapsByCreator",
      "outputs": [
        {
          "internalType": "bytes32[]",
          "name": "",
          "type": "bytes32[]"
        }
      ],
      "stateMutability": "view",
      "type": "function"
    },
    {
      "inputs": [
        {
          "internalType": "bytes32",
          "name": "datasetId",
          "type": "bytes32"
        }
      ],
      "name": "getRemainingReward",
      "outputs": [
        {
          "internalType": "uint256",
          "name": "",
          "type": "uint256"
        }
      ],
      "stateMutability": "view",
      "type": "function"
    },
    {
      "inputs": [
        {
          "internalType": "enum R3v3alfunds.MapSize",
          "name": "mapSize",
          "type": "uint8"
        }
      ],
      "name": "getStakedFunds",
      "outputs": [
        {
          "internalType": "uint256",
          "name": "",
          "type": "uint256"
        }
      ],
      "stateMutability": "view",
      "type": "function"
    },
    {
      "inputs": [
        {
          "internalType": "bytes32",
          "name": "datasetId",
          "type": "bytes32"
        }
      ],
      "name": "getSubMapCreator",
      "outputs": [
        {
          "internalType": "address",
          "name": "",
          "type": "address"
        }
      ],
      "stateMutability": "view",
      "type": "function"
    },
    {
      "inputs": [
        {
          "internalType": "bytes32",
          "name": "datasetId",
          "type": "bytes32"
        }
      ],
      "name": "getSubMapInfo",
      "outputs": [
        {
          "components": [
            {
              "internalType": "uint256",
              "name": "endOfGame",
              "type": "uint256"
            },
            {
              "internalType": "address",
              "name": "mapCreator",
              "type": "address"
            },
            {
              "internalType": "address",
              "name": "mapRewardManager",
              "type": "address"
            },
            {
              "internalType": "uint256",
              "name": "totalReward",
              "type": "uint256"
            },
            {
              "internalType": "uint256",
              "name": "totalRewardLeft",
              "type": "uint256"
            },
            {
              "components": [
                {
                  "internalType": "uint32",
                  "name": "x",
                  "type": "uint32"
                },
                {
                  "internalType": "uint32",
                  "name": "y",
                  "type": "uint32"
                }
              ],
              "internalType": "struct R3v3alfunds.Point[]",
              "name": "claimedCoordinates",
              "type": "tuple[]"
            }
          ],
          "internalType": "struct R3v3alfunds.SubMapInfo",
          "name": "",
          "type": "tuple"
        }
      ],
      "stateMutability": "view",
      "type": "function"
    },
    {
      "inputs": [
        {
          "internalType": "bytes32",
          "name": "mapId",
          "type": "bytes32"
        },
        {
          "internalType": "enum R3v3alfunds.MapSize",
          "name": "mapSize",
          "type": "uint8"
        },
        {
          "internalType": "uint256",
          "name": "totalReward",
          "type": "uint256"
        },
        {
          "internalType": "uint64",
          "name": "totalWinnerCoordinates",
          "type": "uint64"
        },
        {
          "internalType": "uint32",
          "name": "totalSubMaps",
          "type": "uint32"
        }
      ],
      "name": "initMap",
      "outputs": [],
      "stateMutability": "payable",
      "type": "function"
    },
    {
      "inputs": [],
      "name": "lockPeriod",
      "outputs": [
        {
          "internalType": "uint32",
          "name": "",
          "type": "uint32"
        }
      ],
      "stateMutability": "view",
      "type": "function"
    },
    {
      "inputs": [
        {
          "internalType": "bytes32",
          "name": "mapId",
          "type": "bytes32"
        }
      ],
      "name": "mapCreatorWithdrawFundsOfStake",
      "outputs": [],
      "stateMutability": "nonpayable",
      "type": "function"
    },
    {
      "inputs": [
        {
          "internalType": "bytes32",
          "name": "datasetId",
          "type": "bytes32"
        }
      ],
      "name": "mapCreatorWithdrawOfSubMaps",
      "outputs": [],
      "stateMutability": "nonpayable",
      "type": "function"
    },
    {
      "inputs": [
        {
          "internalType": "bytes32",
          "name": "",
          "type": "bytes32"
        }
      ],
      "name": "mapInfoByMapId",
      "outputs": [
        {
          "internalType": "uint256",
          "name": "lockedFund",
          "type": "uint256"
        },
        {
          "internalType": "uint256",
          "name": "unlockTime",
          "type": "uint256"
        },
        {
          "internalType": "enum R3v3alfunds.MapSize",
          "name": "mapSize",
          "type": "uint8"
        },
        {
          "internalType": "address",
          "name": "mapCreator",
          "type": "address"
        },
        {
          "internalType": "uint256",
          "name": "totalReward",
          "type": "uint256"
        },
        {
          "internalType": "uint64",
          "name": "totalWinnerCoordinates",
          "type": "uint64"
        },
        {
          "internalType": "uint32",
          "name": "totalSubMaps",
          "type": "uint32"
        }
      ],
      "stateMutability": "view",
      "type": "function"
    },
    {
      "inputs": [
        {
          "internalType": "address",
          "name": "",
          "type": "address"
        },
        {
          "internalType": "uint256",
          "name": "",
          "type": "uint256"
        }
      ],
      "name": "mapsCreatedByMapCreator",
      "outputs": [
        {
          "internalType": "bytes32",
          "name": "",
          "type": "bytes32"
        }
      ],
      "stateMutability": "view",
      "type": "function"
    },
    {
      "inputs": [],
      "name": "returnRatio",
      "outputs": [
        {
          "internalType": "uint32",
          "name": "",
          "type": "uint32"
        }
      ],
      "stateMutability": "view",
      "type": "function"
    },
    {
      "inputs": [
        {
          "internalType": "bytes32",
          "name": "datasetId",
          "type": "bytes32"
        },
        {
          "internalType": "address",
          "name": "newRewardDistributor",
          "type": "address"
        }
      ],
      "name": "setRewardKeyAddress",
      "outputs": [],
      "stateMutability": "nonpayable",
      "type": "function"
    },
    {
      "inputs": [
        {
          "internalType": "bytes32",
          "name": "datasetId",
          "type": "bytes32"
        }
      ],
      "name": "showRewardKey",
      "outputs": [
        {
          "internalType": "address",
          "name": "",
          "type": "address"
        }
      ],
      "stateMutability": "view",
      "type": "function"
    },
    {
      "inputs": [
        {
          "internalType": "enum R3v3alfunds.MapSize",
          "name": "",
          "type": "uint8"
        }
      ],
      "name": "stakedFundsByMapSize",
      "outputs": [
        {
          "internalType": "uint256",
          "name": "",
          "type": "uint256"
        }
      ],
      "stateMutability": "view",
      "type": "function"
    },
    {
      "inputs": [
        {
          "internalType": "bytes32",
          "name": "",
          "type": "bytes32"
        }
      ],
      "name": "subMapInfoByDatasetId",
      "outputs": [
        {
          "internalType": "uint256",
          "name": "endOfGame",
          "type": "uint256"
        },
        {
          "internalType": "address",
          "name": "mapCreator",
          "type": "address"
        },
        {
          "internalType": "address",
          "name": "mapRewardManager",
          "type": "address"
        },
        {
          "internalType": "uint256",
          "name": "totalReward",
          "type": "uint256"
        },
        {
          "internalType": "uint256",
          "name": "totalRewardLeft",
          "type": "uint256"
        }
      ],
      "stateMutability": "view",
      "type": "function"
    }
  ],
  "bytecode": "0x60806040526103cf600060186101000a81548163ffffffff021916908363ffffffff1602179055503480156200003457600080fd5b50604051620036b6380380620036b683398181016040528101906200005a9190620002ec565b336000806101000a81548173ffffffffffffffffffffffffffffffffffffffff021916908373ffffffffffffffffffffffffffffffffffffffff1602179055506201518085620000ab9190620003a3565b600060146101000a81548163ffffffff021916908363ffffffff16021790555083600160006101000a81548173ffffffffffffffffffffffffffffffffffffffff021916908373ffffffffffffffffffffffffffffffffffffffff1602179055508267ffffffffffffffff1660026000806002811115620001315762000130620003e9565b5b6002811115620001465762000145620003e9565b5b8152602001908152602001600020819055508167ffffffffffffffff1660026000600160028111156200017e576200017d620003e9565b5b6002811115620001935762000192620003e9565b5b8152602001908152602001600020819055508067ffffffffffffffff1660026000600280811115620001ca57620001c9620003e9565b5b6002811115620001df57620001de620003e9565b5b815260200190815260200160002081905550505050505062000418565b600080fd5b600063ffffffff82169050919050565b6200021c8162000201565b81146200022857600080fd5b50565b6000815190506200023c8162000211565b92915050565b600073ffffffffffffffffffffffffffffffffffffffff82169050919050565b60006200026f8262000242565b9050919050565b620002818162000262565b81146200028d57600080fd5b50565b600081519050620002a18162000276565b92915050565b600067ffffffffffffffff82169050919050565b620002c681620002a7565b8114620002d257600080fd5b50565b600081519050620002e681620002bb565b92915050565b600080600080600060a086880312156200030b576200030a620001fc565b5b60006200031b888289016200022b565b95505060206200032e8882890162000290565b94505060406200034188828901620002d5565b93505060606200035488828901620002d5565b92505060806200036788828901620002d5565b9150509295509295909350565b7f4e487b7100000000000000000000000000000000000000000000000000000000600052601160045260246000fd5b6000620003b08262000201565b9150620003bd8362000201565b9250828202620003cd8162000201565b9150808214620003e257620003e162000374565b5b5092915050565b7f4e487b7100000000000000000000000000000000000000000000000000000000600052602160045260246000fd5b61328e80620004286000396000f3fe6080604052600436106101c15760003560e01c80635a8a0a94116100f7578063931125db11610095578063dd08bd1811610064578063dd08bd181461073f578063ddef20bf1461076a578063e6cce441146107a7578063ef1e4591146107c3576101c1565b8063931125db1461064557806399afde2514610682578063ca9123a8146106bf578063db87feee14610702576101c1565b806372bb7309116100d157806372bb73091461054d57806377b64d621461058a578063900641f1146105c757806391d8e25d14610604576101c1565b80635a8a0a94146104965780636c53bd96146104d35780636eafa4ab14610510576101c1565b806325d81aab116101645780633fd8b02f1161013e5780633fd8b02f146103ee578063455e6b6b146104195780634eef3f66146104445780635a5556261461046d576101c1565b806325d81aab14610337578063260847e2146103745780632e7b19a7146103b1576101c1565b806308992cad116101a057806308992cad146102555780630f8c641f1461029257806314d140b0146102cf5780631ba1b21d146102fa576101c1565b8062962d66146101c657806305e3d7ab146101ef57806307e5cbc91461022c575b600080fd5b3480156101d257600080fd5b506101ed60048036038101906101e89190611edf565b6107df565b005b3480156101fb57600080fd5b5061021660048036038101906102119190611f6a565b61098d565b6040516102239190612055565b60405180910390f35b34801561023857600080fd5b50610253600480360381019061024e91906120d1565b610a24565b005b34801561026157600080fd5b5061027c60048036038101906102779190611edf565b610da7565b604051610289919061229d565b60405180910390f35b34801561029e57600080fd5b506102b960048036038101906102b49190611edf565b610edb565b6040516102c691906122c7565b60405180910390f35b3480156102db57600080fd5b506102e4610efb565b6040516102f191906122f1565b60405180910390f35b34801561030657600080fd5b50610321600480360381019061031c9190612331565b610f21565b60405161032e91906122c7565b60405180910390f35b34801561034357600080fd5b5061035e60048036038101906103599190611f6a565b610f62565b60405161036b9190612055565b60405180910390f35b34801561038057600080fd5b5061039b6004803603810190610396919061235e565b610ff9565b6040516103a891906123ad565b60405180910390f35b3480156103bd57600080fd5b506103d860048036038101906103d39190611edf565b61102a565b6040516103e5919061252f565b60405180910390f35b3480156103fa57600080fd5b506104036111c8565b6040516104109190612560565b60405180910390f35b34801561042557600080fd5b5061042e6111de565b60405161043b919061259c565b60405180910390f35b34801561045057600080fd5b5061046b60048036038101906104669190611edf565b611202565b005b34801561047957600080fd5b50610494600480360381019061048f91906125b7565b611489565b005b3480156104a257600080fd5b506104bd60048036038101906104b89190611edf565b6115e8565b6040516104ca91906122f1565b60405180910390f35b3480156104df57600080fd5b506104fa60048036038101906104f59190611edf565b611628565b6040516105079190612560565b60405180910390f35b34801561051c57600080fd5b5061053760048036038101906105329190611edf565b611658565b6040516105449190612606565b60405180910390f35b34801561055957600080fd5b50610574600480360381019061056f9190611edf565b61168c565b60405161058191906122c7565b60405180910390f35b34801561059657600080fd5b506105b160048036038101906105ac9190611edf565b6116ac565b6040516105be91906122f1565b60405180910390f35b3480156105d357600080fd5b506105ee60048036038101906105e99190611edf565b6116ec565b6040516105fb91906122f1565b60405180910390f35b34801561061057600080fd5b5061062b60048036038101906106269190611edf565b61172c565b60405161063c959493929190612621565b60405180910390f35b34801561065157600080fd5b5061066c6004803603810190610667919061235e565b6117a2565b60405161067991906123ad565b60405180910390f35b34801561068e57600080fd5b506106a960048036038101906106a49190611edf565b6117d3565b6040516106b691906122c7565b60405180910390f35b3480156106cb57600080fd5b506106e660048036038101906106e19190611edf565b6117f3565b6040516106f99796959493929190612683565b60405180910390f35b34801561070e57600080fd5b5061072960048036038101906107249190611edf565b611886565b6040516107369190612761565b60405180910390f35b34801561074b57600080fd5b50610754611943565b6040516107619190612560565b60405180910390f35b34801561077657600080fd5b50610791600480360381019061078c9190612331565b611959565b60405161079e91906122c7565b60405180910390f35b6107c160048036038101906107bc91906127af565b611971565b005b6107dd60048036038101906107d8919061282e565b611b58565b005b6000600660008381526020019081526020016000209050806000015442101561083d576040517f08c379a00000000000000000000000000000000000000000000000000000000081526004016108349061292c565b60405180910390fd5b8060010160009054906101000a900473ffffffffffffffffffffffffffffffffffffffff1673ffffffffffffffffffffffffffffffffffffffff163373ffffffffffffffffffffffffffffffffffffffff16146108cf576040517f08c379a00000000000000000000000000000000000000000000000000000000081526004016108c6906129be565b60405180910390fd5b60006103e8600060189054906101000a900463ffffffff1663ffffffff1683600401546108fc9190612a0d565b6109069190612a7e565b90503373ffffffffffffffffffffffffffffffffffffffff166108fc829081150290604051600060405180830381858888f1935050505015801561094e573d6000803e3d6000fd5b507fd964a27d45f595739c13d8b1160b57491050cacf3a2e5602207277d6228f64ee8133604051610980929190612aaf565b60405180910390a1505050565b6060600460008373ffffffffffffffffffffffffffffffffffffffff1673ffffffffffffffffffffffffffffffffffffffff168152602001908152602001600020805480602002602001604051908101604052809291908181526020018280548015610a1857602002820191906000526020600020905b815481526020019060010190808311610a04575b50505050509050919050565b60006006600086815260200190815260200160002090508060020160009054906101000a900473ffffffffffffffffffffffffffffffffffffffff1673ffffffffffffffffffffffffffffffffffffffff163373ffffffffffffffffffffffffffffffffffffffff1614610acd576040517f08c379a0000000000000000000000000000000000000000000000000000000008152600401610ac490612b4a565b60405180910390fd5b8060010160009054906101000a900473ffffffffffffffffffffffffffffffffffffffff1673ffffffffffffffffffffffffffffffffffffffff163373ffffffffffffffffffffffffffffffffffffffff1603610b5f576040517f08c379a0000000000000000000000000000000000000000000000000000000008152600401610b5690612bdc565b60405180910390fd5b8060040154821115610ba6576040517f08c379a0000000000000000000000000000000000000000000000000000000008152600401610b9d90612c48565b60405180910390fd5b60005b8160050180549050811015610cb557836000016020810190610bcb9190612c68565b63ffffffff16826005018281548110610be757610be6612c95565b5b9060005260206000200160000160009054906101000a900463ffffffff1663ffffffff16141580610c695750836020016020810190610c269190612c68565b63ffffffff16826005018281548110610c4257610c41612c95565b5b9060005260206000200160000160049054906101000a900463ffffffff1663ffffffff1614155b610ca8576040517f08c379a0000000000000000000000000000000000000000000000000000000008152600401610c9f90612d10565b60405180910390fd5b8080600101915050610ba9565b508060050183908060018154018082558091505060019003906000526020600020016000909190919091508181610cec9190612e72565b505081816004016000828254610d029190612e80565b925050819055508373ffffffffffffffffffffffffffffffffffffffff166108fc839081150290604051600060405180830381858888f19350505050158015610d4f573d6000803e3d6000fd5b508373ffffffffffffffffffffffffffffffffffffffff167f3e7d373dc1cf4b8674c47c8bce95bbd8f6835dd474a4999200afce85f12897748385604051610d98929190612f0a565b60405180910390a25050505050565b610daf611dcd565b600560008381526020019081526020016000206040518060e001604052908160008201548152602001600182015481526020016002820160009054906101000a900460ff166002811115610e0657610e05612147565b5b6002811115610e1857610e17612147565b5b81526020016002820160019054906101000a900473ffffffffffffffffffffffffffffffffffffffff1673ffffffffffffffffffffffffffffffffffffffff1673ffffffffffffffffffffffffffffffffffffffff168152602001600382015481526020016004820160009054906101000a900467ffffffffffffffff1667ffffffffffffffff1667ffffffffffffffff1681526020016004820160089054906101000a900463ffffffff1663ffffffff1663ffffffff16815250509050919050565b600060066000838152602001908152602001600020600401549050919050565b600160009054906101000a900473ffffffffffffffffffffffffffffffffffffffff1681565b600060026000836002811115610f3a57610f39612147565b5b6002811115610f4c57610f4b612147565b5b8152602001908152602001600020549050919050565b6060600360008373ffffffffffffffffffffffffffffffffffffffff1673ffffffffffffffffffffffffffffffffffffffff168152602001908152602001600020805480602002602001604051908101604052809291908181526020018280548015610fed57602002820191906000526020600020905b815481526020019060010190808311610fd9575b50505050509050919050565b6003602052816000526040600020818154811061101557600080fd5b90600052602060002001600091509150505481565b611032611e42565b600660008381526020019081526020016000206040518060c0016040529081600082015481526020016001820160009054906101000a900473ffffffffffffffffffffffffffffffffffffffff1673ffffffffffffffffffffffffffffffffffffffff1673ffffffffffffffffffffffffffffffffffffffff1681526020016002820160009054906101000a900473ffffffffffffffffffffffffffffffffffffffff1673ffffffffffffffffffffffffffffffffffffffff1673ffffffffffffffffffffffffffffffffffffffff168152602001600382015481526020016004820154815260200160058201805480602002602001604051908101604052809291908181526020016000905b828210156111b9578382906000526020600020016040518060400160405290816000820160009054906101000a900463ffffffff1663ffffffff1663ffffffff1681526020016000820160049054906101000a900463ffffffff1663ffffffff1663ffffffff16815250508152602001906001019061113f565b50505050815250509050919050565b600060149054906101000a900463ffffffff1681565b60008054906101000a900473ffffffffffffffffffffffffffffffffffffffff1681565b60006005600083815260200190815260200160002090508060010154421015611260576040517f08c379a000000000000000000000000000000000000000000000000000000000815260040161125790612f7f565b60405180910390fd5b8060020160019054906101000a900473ffffffffffffffffffffffffffffffffffffffff1673ffffffffffffffffffffffffffffffffffffffff163373ffffffffffffffffffffffffffffffffffffffff16146112f2576040517f08c379a00000000000000000000000000000000000000000000000000000000081526004016112e9906129be565b60405180910390fd5b60006103e8600060189054906101000a900463ffffffff1663ffffffff16836000015461131f9190612a0d565b6113299190612a7e565b9050600081836000015461133d9190612e80565b90503373ffffffffffffffffffffffffffffffffffffffff166108fc839081150290604051600060405180830381858888f19350505050158015611385573d6000803e3d6000fd5b507fd964a27d45f595739c13d8b1160b57491050cacf3a2e5602207277d6228f64ee82336040516113b7929190612aaf565b60405180910390a1600160009054906101000a900473ffffffffffffffffffffffffffffffffffffffff1673ffffffffffffffffffffffffffffffffffffffff166108fc829081150290604051600060405180830381858888f19350505050158015611427573d6000803e3d6000fd5b507fd964a27d45f595739c13d8b1160b57491050cacf3a2e5602207277d6228f64ee81600160009054906101000a900473ffffffffffffffffffffffffffffffffffffffff1660405161147b929190612aaf565b60405180910390a150505050565b60006006600084815260200190815260200160002090508060010160009054906101000a900473ffffffffffffffffffffffffffffffffffffffff1673ffffffffffffffffffffffffffffffffffffffff163373ffffffffffffffffffffffffffffffffffffffff1614611532576040517f08c379a000000000000000000000000000000000000000000000000000000000815260040161152990613011565b60405180910390fd5b8173ffffffffffffffffffffffffffffffffffffffff163373ffffffffffffffffffffffffffffffffffffffff16036115a0576040517f08c379a0000000000000000000000000000000000000000000000000000000008152600401611597906130a3565b60405180910390fd5b818160020160006101000a81548173ffffffffffffffffffffffffffffffffffffffff021916908373ffffffffffffffffffffffffffffffffffffffff160217905550505050565b60006005600083815260200190815260200160002060020160019054906101000a900473ffffffffffffffffffffffffffffffffffffffff169050919050565b60006005600083815260200190815260200160002060040160089054906101000a900463ffffffff169050919050565b60006005600083815260200190815260200160002060040160009054906101000a900467ffffffffffffffff169050919050565b600060056000838152602001908152602001600020600301549050919050565b60006006600083815260200190815260200160002060020160009054906101000a900473ffffffffffffffffffffffffffffffffffffffff169050919050565b60006006600083815260200190815260200160002060010160009054906101000a900473ffffffffffffffffffffffffffffffffffffffff169050919050565b60066020528060005260406000206000915090508060000154908060010160009054906101000a900473ffffffffffffffffffffffffffffffffffffffff16908060020160009054906101000a900473ffffffffffffffffffffffffffffffffffffffff16908060030154908060040154905085565b600460205281600052604060002081815481106117be57600080fd5b90600052602060002001600091509150505481565b600060056000838152602001908152602001600020600101549050919050565b60056020528060005260406000206000915090508060000154908060010154908060020160009054906101000a900460ff16908060020160019054906101000a900473ffffffffffffffffffffffffffffffffffffffff16908060030154908060040160009054906101000a900467ffffffffffffffff16908060040160089054906101000a900463ffffffff16905087565b606060066000838152602001908152602001600020600501805480602002602001604051908101604052809291908181526020016000905b82821015611938578382906000526020600020016040518060400160405290816000820160009054906101000a900463ffffffff1663ffffffff1663ffffffff1681526020016000820160049054906101000a900463ffffffff1663ffffffff1663ffffffff1681525050815260200190600101906118be565b505050509050919050565b600060189054906101000a900463ffffffff1681565b60026020528060005260406000206000915090505481565b6005600084815260200190815260200160002060020160019054906101000a900473ffffffffffffffffffffffffffffffffffffffff1673ffffffffffffffffffffffffffffffffffffffff163373ffffffffffffffffffffffffffffffffffffffff1614611a15576040517f08c379a0000000000000000000000000000000000000000000000000000000008152600401611a0c90613135565b60405180910390fd5b60006006600084815260200190815260200160002090506201518082611a3b9190613155565b63ffffffff1642611a4c9190613192565b8160000181905550338160010160006101000a81548173ffffffffffffffffffffffffffffffffffffffff021916908373ffffffffffffffffffffffffffffffffffffffff160217905550338160020160006101000a81548173ffffffffffffffffffffffffffffffffffffffff021916908373ffffffffffffffffffffffffffffffffffffffff160217905550348160030181905550348160040181905550600360003373ffffffffffffffffffffffffffffffffffffffff1673ffffffffffffffffffffffffffffffffffffffff16815260200190815260200160002083908060018154018082558091505060019003906000526020600020016000909190919091505550505050565b60026000856002811115611b6f57611b6e612147565b5b6002811115611b8157611b80612147565b5b8152602001908152602001600020543414611bd1576040517f08c379a0000000000000000000000000000000000000000000000000000000008152600401611bc890613238565b60405180910390fd5b6040518060e00160405280348152602001600060149054906101000a900463ffffffff1663ffffffff1642611c069190613192565b8152602001856002811115611c1e57611c1d612147565b5b81526020013373ffffffffffffffffffffffffffffffffffffffff1681526020018481526020018367ffffffffffffffff1681526020018263ffffffff1681525060056000878152602001908152602001600020600082015181600001556020820151816001015560408201518160020160006101000a81548160ff02191690836002811115611cb157611cb0612147565b5b021790555060608201518160020160016101000a81548173ffffffffffffffffffffffffffffffffffffffff021916908373ffffffffffffffffffffffffffffffffffffffff1602179055506080820151816003015560a08201518160040160006101000a81548167ffffffffffffffff021916908367ffffffffffffffff16021790555060c08201518160040160086101000a81548163ffffffff021916908363ffffffff160217905550905050600460003373ffffffffffffffffffffffffffffffffffffffff1673ffffffffffffffffffffffffffffffffffffffff1681526020019081526020016000208590806001815401808255809150506001900390600052602060002001600090919091909150555050505050565b6040518060e00160405280600081526020016000815260200160006002811115611dfa57611df9612147565b5b8152602001600073ffffffffffffffffffffffffffffffffffffffff16815260200160008152602001600067ffffffffffffffff168152602001600063ffffffff1681525090565b6040518060c0016040528060008152602001600073ffffffffffffffffffffffffffffffffffffffff168152602001600073ffffffffffffffffffffffffffffffffffffffff1681526020016000815260200160008152602001606081525090565b600080fd5b6000819050919050565b611ebc81611ea9565b8114611ec757600080fd5b50565b600081359050611ed981611eb3565b92915050565b600060208284031215611ef557611ef4611ea4565b5b6000611f0384828501611eca565b91505092915050565b600073ffffffffffffffffffffffffffffffffffffffff82169050919050565b6000611f3782611f0c565b9050919050565b611f4781611f2c565b8114611f5257600080fd5b50565b600081359050611f6481611f3e565b92915050565b600060208284031215611f8057611f7f611ea4565b5b6000611f8e84828501611f55565b91505092915050565b600081519050919050565b600082825260208201905092915050565b6000819050602082019050919050565b611fcc81611ea9565b82525050565b6000611fde8383611fc3565b60208301905092915050565b6000602082019050919050565b600061200282611f97565b61200c8185611fa2565b935061201783611fb3565b8060005b8381101561204857815161202f8882611fd2565b975061203a83611fea565b92505060018101905061201b565b5085935050505092915050565b6000602082019050818103600083015261206f8184611ff7565b905092915050565b600080fd5b60006040828403121561209257612091612077565b5b81905092915050565b6000819050919050565b6120ae8161209b565b81146120b957600080fd5b50565b6000813590506120cb816120a5565b92915050565b60008060008060a085870312156120eb576120ea611ea4565b5b60006120f987828801611eca565b945050602061210a87828801611f55565b935050604061211b8782880161207c565b925050608061212c878288016120bc565b91505092959194509250565b6121418161209b565b82525050565b7f4e487b7100000000000000000000000000000000000000000000000000000000600052602160045260246000fd5b6003811061218757612186612147565b5b50565b600081905061219882612176565b919050565b60006121a88261218a565b9050919050565b6121b88161219d565b82525050565b6121c781611f2c565b82525050565b600067ffffffffffffffff82169050919050565b6121ea816121cd565b82525050565b600063ffffffff82169050919050565b612209816121f0565b82525050565b60e0820160008201516122256000850182612138565b5060208201516122386020850182612138565b50604082015161224b60408501826121af565b50606082015161225e60608501826121be565b5060808201516122716080850182612138565b5060a082015161228460a08501826121e1565b5060c082015161229760c0850182612200565b50505050565b600060e0820190506122b2600083018461220f565b92915050565b6122c18161209b565b82525050565b60006020820190506122dc60008301846122b8565b92915050565b6122eb81611f2c565b82525050565b600060208201905061230660008301846122e2565b92915050565b6003811061231957600080fd5b50565b60008135905061232b8161230c565b92915050565b60006020828403121561234757612346611ea4565b5b60006123558482850161231c565b91505092915050565b6000806040838503121561237557612374611ea4565b5b600061238385828601611f55565b9250506020612394858286016120bc565b9150509250929050565b6123a781611ea9565b82525050565b60006020820190506123c2600083018461239e565b92915050565b600081519050919050565b600082825260208201905092915050565b6000819050602082019050919050565b60408201600082015161240a6000850182612200565b50602082015161241d6020850182612200565b50505050565b600061242f83836123f4565b60408301905092915050565b6000602082019050919050565b6000612453826123c8565b61245d81856123d3565b9350612468836123e4565b8060005b838110156124995781516124808882612423565b975061248b8361243b565b92505060018101905061246c565b5085935050505092915050565b600060c0830160008301516124be6000860182612138565b5060208301516124d160208601826121be565b5060408301516124e460408601826121be565b5060608301516124f76060860182612138565b50608083015161250a6080860182612138565b5060a083015184820360a08601526125228282612448565b9150508091505092915050565b6000602082019050818103600083015261254981846124a6565b905092915050565b61255a816121f0565b82525050565b60006020820190506125756000830184612551565b92915050565b600061258682611f0c565b9050919050565b6125968161257b565b82525050565b60006020820190506125b1600083018461258d565b92915050565b600080604083850312156125ce576125cd611ea4565b5b60006125dc85828601611eca565b92505060206125ed85828601611f55565b9150509250929050565b612600816121cd565b82525050565b600060208201905061261b60008301846125f7565b92915050565b600060a08201905061263660008301886122b8565b61264360208301876122e2565b61265060408301866122e2565b61265d60608301856122b8565b61266a60808301846122b8565b9695505050505050565b61267d8161219d565b82525050565b600060e082019050612698600083018a6122b8565b6126a560208301896122b8565b6126b26040830188612674565b6126bf60608301876122e2565b6126cc60808301866122b8565b6126d960a08301856125f7565b6126e660c0830184612551565b98975050505050505050565b600082825260208201905092915050565b600061270e826123c8565b61271881856126f2565b9350612723836123e4565b8060005b8381101561275457815161273b8882612423565b97506127468361243b565b925050600181019050612727565b5085935050505092915050565b6000602082019050818103600083015261277b8184612703565b905092915050565b61278c816121f0565b811461279757600080fd5b50565b6000813590506127a981612783565b92915050565b6000806000606084860312156127c8576127c7611ea4565b5b60006127d686828701611eca565b93505060206127e786828701611eca565b92505060406127f88682870161279a565b9150509250925092565b61280b816121cd565b811461281657600080fd5b50565b60008135905061282881612802565b92915050565b600080600080600060a0868803121561284a57612849611ea4565b5b600061285888828901611eca565b95505060206128698882890161231c565b945050604061287a888289016120bc565b935050606061288b88828901612819565b925050608061289c8882890161279a565b9150509295509295909350565b600082825260208201905092915050565b7f456e64206f662067616d6520706572696f6420686173206e6f7420796574207060008201527f6173736564000000000000000000000000000000000000000000000000000000602082015250565b60006129166025836128a9565b9150612921826128ba565b604082019050919050565b6000602082019050818103600083015261294581612909565b9050919050565b7f4f6e6c7920746865206d61702063726561746f722063616e207769746864726160008201527f772066756e647300000000000000000000000000000000000000000000000000602082015250565b60006129a86027836128a9565b91506129b38261294c565b604082019050919050565b600060208201905081810360008301526129d78161299b565b9050919050565b7f4e487b7100000000000000000000000000000000000000000000000000000000600052601160045260246000fd5b6000612a188261209b565b9150612a238361209b565b9250828202612a318161209b565b91508282048414831517612a4857612a476129de565b5b5092915050565b7f4e487b7100000000000000000000000000000000000000000000000000000000600052601260045260246000fd5b6000612a898261209b565b9150612a948361209b565b925082612aa457612aa3612a4f565b5b828204905092915050565b6000604082019050612ac460008301856122b8565b612ad160208301846122e2565b9392505050565b7f4f6e6c7920746865206d617020726577617264206d616e616765722063616e2060008201527f6469737472696275746520726577617264730000000000000000000000000000602082015250565b6000612b346032836128a9565b9150612b3f82612ad8565b604082019050919050565b60006020820190508181036000830152612b6381612b27565b9050919050565b7f4d61702063726561746f722063616e277420646973747269627574652074686560008201527f206d617020726577617264000000000000000000000000000000000000000000602082015250565b6000612bc6602b836128a9565b9150612bd182612b6a565b604082019050919050565b60006020820190508181036000830152612bf581612bb9565b9050919050565b7f496e73756666696369656e74207265776172642062616c616e63650000000000600082015250565b6000612c32601b836128a9565b9150612c3d82612bfc565b602082019050919050565b60006020820190508181036000830152612c6181612c25565b9050919050565b600060208284031215612c7e57612c7d611ea4565b5b6000612c8c8482850161279a565b91505092915050565b7f4e487b7100000000000000000000000000000000000000000000000000000000600052603260045260246000fd5b7f436f6f7264696e6174657320616c726561647920636c61696d65640000000000600082015250565b6000612cfa601b836128a9565b9150612d0582612cc4565b602082019050919050565b60006020820190508181036000830152612d2981612ced565b9050919050565b60008135612d3d81612783565b80915050919050565b60008160001b9050919050565b600063ffffffff612d6384612d46565b9350801983169250808416831791505092915050565b6000819050919050565b6000612d9e612d99612d94846121f0565b612d79565b6121f0565b9050919050565b6000819050919050565b612db882612d83565b612dcb612dc482612da5565b8354612d53565b8255505050565b60008160201b9050919050565b600067ffffffff00000000612df384612dd2565b9350801983169250808416831791505092915050565b612e1282612d83565b612e25612e1e82612da5565b8354612ddf565b8255505050565b600081016000830180612e3e81612d30565b9050612e4a8184612daf565b505050600081016020830180612e5f81612d30565b9050612e6b8184612e09565b5050505050565b612e7c8282612e2c565b5050565b6000612e8b8261209b565b9150612e968361209b565b9250828203905081811115612eae57612ead6129de565b5b92915050565b6000612ec3602084018461279a565b905092915050565b60408201612edc6000830183612eb4565b612ee96000850182612200565b50612ef76020830183612eb4565b612f046020850182612200565b50505050565b6000606082019050612f1f60008301856122b8565b612f2c6020830184612ecb565b9392505050565b7f556e6c6f636b20706572696f6420686173206e6f742079657420706173736564600082015250565b6000612f696020836128a9565b9150612f7482612f33565b602082019050919050565b60006020820190508181036000830152612f9881612f5c565b9050919050565b7f4f6e6c7920746865206d61702063726561746f722063616e207365742074686560008201527f206e657720726577617264206d616e6167657200000000000000000000000000602082015250565b6000612ffb6033836128a9565b915061300682612f9f565b604082019050919050565b6000602082019050818103600083015261302a81612fee565b9050919050565b7f43616e6e6f742073657420746865206e657720726577617264206d616e61676560008201527f72207769746820796f7572206164647265737300000000000000000000000000602082015250565b600061308d6033836128a9565b915061309882613031565b604082019050919050565b600060208201905081810360008301526130bc81613080565b9050919050565b7f4f6e6c7920746865206d61702063726561746f722063616e2066756e6420746860008201527f65206d6170000000000000000000000000000000000000000000000000000000602082015250565b600061311f6025836128a9565b915061312a826130c3565b604082019050919050565b6000602082019050818103600083015261314e81613112565b9050919050565b6000613160826121f0565b915061316b836121f0565b9250828202613179816121f0565b915080821461318b5761318a6129de565b5b5092915050565b600061319d8261209b565b91506131a88361209b565b92508282019050808211156131c0576131bf6129de565b5b92915050565b7f496e73756666696369656e74207374616b65642066756e647320746f2063726560008201527f617465206d617000000000000000000000000000000000000000000000000000602082015250565b60006132226027836128a9565b915061322d826131c6565b604082019050919050565b6000602082019050818103600083015261325181613215565b905091905056fea26469706673582212207a9b80336b8fbddd5d330213ded656304d61012bf5f22f16cfa676e30a6aa72264736f6c63430008180033",
  "linkReferences": {},
  "deployedLinkReferences": {}
}